:020000040800F2
:10000000E8080020A1020008F1140008E914000823
:10001000ED1400083D060008791D000800000000EE
:10002000000000000000000000000000151C000897
:10003000C106000800000000191B0008191C000878
:10004000BB020008BB020008BB020008BB0200089C
:10005000BB020008BB020008BB020008BB0200088C
:10006000BB020008BB020008BB020008BB0200087C
:10007000BB020008BB020008BB020008BB0200086C
:10008000BB020008BB020008BB020008BB0200085C
:10009000BB020008BB020008BB020008BB0200084C
:1000A000BB020008BB020008BB020008BB0200083C
:1000B000BB020008311C0008BB020008BB0200089C
:1000C000BB020008BB020008BB020008BB0200081C
:1000D000BB020008BB020008BB020008BB0200080C
:1000E000BB020008BB020008BB020008BB020008FC
:1000F000BB020008BB020008BB020008BB020008EC
:10010000BB020008BB020008BB020008BB020008DB
:10011000BB020008BB020008BB020008BB020008CB
:10012000BB020008BB020008BB020008BB020008BB
:10013000BB0200080000000000000000BB02000835
:10014000BB020008BB020008BB020008BB0200089B
:10015000BB020008BB020008BB020008BB0200088B
:10016000BB020008BB020008BB020008BB0200087B
:10017000BB020008BB02000800000000BB02000830
:10018000BB020008BB02000800F002F800F05EF8B5
:100190000AA090E8000C82448344AAF10107DA45E2
:1001A00001D100F053F8AFF2090EBAE80F0013F0D6
:1001B000010F18BFFB1A43F001031847B02F0000CE
:1001C000D02F00000A444FF0000C10F8013B13F050
:1001D000070408BF10F8014B1D1108BF10F8015BA0
:1001E000641E05D010F8016B641E01F8016BF9D193
:1001F00013F0080F1EBF10F8014BAD1C0C1B09D1EA
:100200006D1E58BF01F801CBFAD505E014F8016B5B
:1002100001F8016B6D1EF9D59142D6D370470000ED
:100220000023002400250026103A28BF78C1FBD8FF
:10023000520728BF30C148BF0B6070471FB502F09E
:1002400081FA00F0DAF81FBD10B510BD00F0BCF95E
:100250001146FFF7F3FF01F091FD00F0DAF903B466
:10026000FFF7F2FF03BC00F0E1F900000B49D1F801
:1002700000C04A685CF8043B1068184442F8040B5C
:100280008C4528BFA1F1DC0C8A4228BFA1F1DC0219
:10029000C1F800C04A6020F0004070472C020020E6
:1002A0000948804709480047FEE7FEE7FEE7FEE70A
:1002B000FEE7FEE7FEE7FEE7FEE7FEE70448054946
:1002C000054A064B704700001D1C00088901000804
:1002D000E8020020E8080020E8040020E8040020EC
:1002E00053EA020C00F069802DE9F04B4FF0000654
:1002F000002B1FBFB3FA83F503FA05F424FA05F6C1
:100300005E4012BF1643B2FA82F502FA05F4C5F157
:1003100020051EBF22FA05FC44EA0C04203556EAEB
:10032000044C4FEA144418BF641C4FF000084FF00F
:100330000009904271EB030C39D3002919BFB1FABF
:1003400081F701FA07F6B0FA80F700FA07F6C7F16D
:1003500020071EBF20FA07FC46EA0C062037B6FB32
:10036000F4FCA7EB0507103F07F01F0BCBF12006AD
:100370002CFA06F60CFA0BFB44BFB3460026202FDE
:10038000A4BF5E464FF0000B5BEA060C08BF4FF0BF
:10039000010B19EB0B0948EB0608ABFB027C06FBD3
:1003A00002CC0BFB03CCC01B71EB0C01C1E70B466D
:1003B000024641464846BDE8F08B13B5084318BFD6
:1003C0004FF0FF300146AFF30080BDE81C4070479E
:1003D0000B4910B5A1F17C020A4CC2E93712372152
:1003E00006E000EB104342F82130074B00FB0340CE
:1003F0000B1EA1F10101F4DC10BD0120E8E70000B3
:10040000CC010020E119D666CD0D0100032A40F28F
:10041000308010F0030C00F0158011F8013BBCF1A6
:10042000020F624498BF11F801CB00F8013B38BFBE
:1004300011F8013BA2F1040298BF00F801CB38BFCC
:1004400000F8013B11F0030300F02580083AC0F0EA
:10045000088051F8043B083A51F804CBA0E8081092
:10046000F5E7121D5CBF51F8043B40F8043BAFF3C5
:100470000080D20724BF11F8013B11F801CB48BF1F
:1004800011F8012B24BF00F8013B00F801CB48BF55
:1004900000F8012B704710B5203AC0F00B80B1E88E
:1004A0001850A0E81850B1E81850A0E81850203AA9
:1004B000BFF4F5AF5FEA027C24BFB1E81850A0E8B2
:1004C000185044BF18C918C0BDE810405FEA827CCC
:1004D00024BF51F8043B40F8043B08BF7047D207E3
:1004E00028BF31F8023B48BF11F8012B28BF20F884
:1004F000023B48BF00F8012B7047431A28BF9A42BD
:100500007FF6C9AF1044114410F0030F1EBF11F85D
:10051000013D521E00F8013D10F0030F7FF4F6AFCD
:10052000103AC0F00A8010B531E9185020E918508F
:10053000103ABFF4F9AFBDE81040530724BF31E9CA
:10054000081020E9081044BF51F8043D40F8043D6C
:1005500012F0030F08BF7047D20728BF31F8023DE1
:1005600048BF11F8012C28BF20F8023D48BF00F811
:10057000012C70474FF0000200B513469446964692
:10058000203922BFA0E80C50A0E80C50B1F12001A6
:10059000BFF4F7AF090728BFA0E80C5048BF0CC054
:1005A0005DF804EB890028BF40F8042B08BF7047B2
:1005B00048BF20F8022B11F0804F18BF00F8012B24
:1005C0007047704770477047754600F02BF8AE468D
:1005D00005006946534620F00700854618B020B54F
:1005E000FFF76CFEBDE820404FF000064FF000071B
:1005F0004FF000084FF0000BAC46ACE8C009ACE887
:10060000C009ACE8C009ACE8C00921F007018D467B
:10061000704710B50446AFF300802046BDE8104097
:10062000FFF71DBE00487047340200200149182022
:10063000ABBEFEE72600020070470000FEE70000A8
:1006400041F2040140F20803CEF20001C2F20003BD
:100650000A68D3F800C04DF68363C4F21B33ACFBC9
:10066000033C4FEA9C43584309E000BF0B689B1AC8
:10067000834228BF70470B689B1A834207D20B68DE
:100680009B1A834203D20B689B1A8342EED37047B6
:100690004EF6FC50CEF200000168C90148BF704719
:1006A000016841F08071016041F20000CEF200006B
:1006B00000214160016841F00101016070470000C4
:1006C00070470000B0B5044600F0FAF8054640F265
:1006D0000000C2F200000078611C18BF044400BF93
:1006E00000F0EEF8401BA042FAD3B0BD2DE9F04F68
:1006F00082B000F13E4241F6004502F1FF77C4F2BC
:10070000020508224FEAB726A84208BF0722072E93
:1007100038BF4FEAB7224FF0010A002400274FF0FC
:100720000008009208E000BF023708F10108202FFE
:1007300004F1040400F0B4800E680AFA08F916EA1D
:10074000090FF1D0D1F804A00AF0030BABF10106B8
:10075000012E17D80322866802FA07FECA6826EA25
:100760000E06BA40324382604268CAF3001522EA9C
:10077000090205FA08F54FEA480C6FEA0E062A430B
:1007800042600BE00322BA40D643BBF1030FBC46E4
:1007900004D1BC464FF0030B22E000BFC2688D6855
:1007A000324005FA0CF52A43BBF1020FC26017D1A3
:1007B0006FF0030202EA5802024404F01C030F2502
:1007C000D2F820E005FA03FA0D692EEA0A0E05FABE
:1007D00003F343EA0E031362D1F804A00AF0030BFB
:1007E00002680BFA0CF332401A431AF4403F4FF000
:1007F000010A026098D0002243F644030192C4F239
:1008000002031A6843F6004E42F480421A601A68E6
:10081000C4F2010E02F480420192019A28F0030210
:100820004FF6084C7244CFF6FF7C52F80C3004F0BF
:100830000C060F25B540AB43009D05FA06F6334381
:1008400042F80C30DEF808204B6842EA090643F60D
:100850000C4CDD0258BF22EA0906CEF80860C4F24B
:10086000010CDCF800209D0242EA090658BF22EA8A
:100870000906CCF80060DEF804209D0342EA090670
:1008800058BF22EA0906CEF80460DEF80020DB0338
:1008900042EA090658BF22EA0906CEF8006043E79B
:1008A00002B0BDE8F08F00000069084018BF0120C9
:1008B00070470000002A08BF0904816170470000EA
:1008C00040F2E020C2F200000068704740F20000F1
:1008D00040F2E021C2F20000C2F2000100780A6892
:1008E000104408607047000080B543F60040C4F231
:1008F0000200016841F400710160016841F4806107
:100900000160016841F480710160032000F084F807
:100910000F2000F005F800F027F8002080BD00004F
:1009200070B540F20006C2F2000640F208013278CB
:10093000C2F200014FF47A730968B3FBF2F2044685
:10094000B1FBF2F1084600F019FB0F2C4FF0010546
:1009500008D838B94FF0FF3021460022002500F0BA
:100960002FF87460284670BD82B0002043F6400125
:100970000190C4F202014A6842F480424A604A6827
:1009800002F480420192019A0090086840F0805081
:100990000860086800F080500090009802B070472E
:1009A000002848BF704700F01F01012202FA01F140
:1009B0004EF200124009CEF2000242F820107047B9
:1009C00010B54EF60C5CCEF2000CDCF80030C3F330
:1009D000022E8EF00704042C28BF0424BEF103036A
:1009E0004FF0FF3E0EFA04F438BF0023A1439940B4
:1009F0000EFA03F39A43114300F00F02043A6244E3
:100A000009010C3200F16043B0F1FF3FC8BF03F5AC
:100A10006442117010BD00004EF60C51CEF2000180
:100A20000A684FF6FF031A4060F30A2242F0806022
:100A300040F0FD70086070472DE9F041002800F09B
:100A40008B8043F60808C4F202080446D8F8F8037D
:100A50000D4600F00700884207D288F8F853D8F80E
:100A6000F80300F00700A84276D12068810717D567
:100A7000410705D5D8F8001041F4E051C8F800103E
:100A8000010705D5D8F8001041F46041C8F80010FE
:100A9000D8F80010A26821F0F0011143C8F8001046
:100AA000C0073FD1D8F8F80300F00700A84207D9E3
:100AB00088F8F853D8F8F80300F00700A8424BD1A3
:100AC0002068410707D5D8F80010E26821F4E0510A
:100AD0001143C8F80010000708D5D8F800002169B4
:100AE00020F4604040EAC100C8F8000000F054F86B
:100AF000D8F8001042F65812C1F30311C0F60002F4
:100B0000515C40F2080220FA01F140F20400C2F206
:100B100000000068C2F200021160FFF701FF002030
:100B2000BDE8F0816068811E022907D258F8081CD0
:100B300089015CBF0120BDE8F08111E0012807D1E7
:100B400058F8081C89035CBF0120BDE8F08107E06C
:100B500058F8081C890703D40120BDE8F08100BFC4
:100B6000D8F8001021F003010843C8F80000FFF78F
:100B7000A7FE064641F28837D8F80000616800F009
:100B80000C00B0EB810F8DD0FFF79AFE801BB842AE
:100B9000F2D90320BDE8F08110B543F60404C4F295
:100BA0000204606800F00C0008280BD0042819BF6C
:100BB00042F20040C0F2F40047F64000C0F27D105F
:100BC00010BD00BF206821682368490247F6400134
:100BD000C0F27D1100F03F02C3F388105CBF42F207
:100BE0000041C0F2F401A1FB00010023FFF778FBF4
:100BF00021680222C1F3014102EB4101B0FBF1F097
:100C000010BD00002DE9F04182B000286AD00446F2
:100C1000007843F60006C007C4F202060BD0B068A5
:100C200000F00C00042840F0A1803068800302D559
:100C30006068002856D0207880071AD5B06810F078
:100C40000C0F09D0B06800F00C00082840F0A88014
:100C50007068400200F1A4803068800702D5E06827
:100C600001283FD13068216920F0F80040EAC10036
:100C700030602078000739D4207840074ED4A56929
:100C80005DB3B06800F00C00082840F0BD80012D75
:100C900028D07068E16900F480028A4222D1216A7A
:100CA00000F03F028A421DD147F6C071626A0140DE
:100CB000B1EB821F16D1A26A0023CFF6FF7303EBBC
:100CC000C23200F440316FF30F0291420AD1E16A5F
:100CD00000F07060B0EB016F04D1002002B0BDE8FD
:100CE000F08100BF012002B0BDE8F08160690028FA
:100CF00040F20000C4F2472076D00121C0F8801EE7
:100D0000FFF7DEFD054600BF706F8007B4D4FFF724
:100D1000D7FD401B0228F7D9DDE000BF306C10F092
:100D200080580AD100200190306C40F0805030642F
:100D3000306C00F080500190019847F20007C4F237
:100D400000073868C00541D4386840F480703860C6
:100D5000FFF7B6FD054600BF3868C00536D4FFF77B
:100D6000AFFD401B0228F7D9B5E000BFB06800F026
:100D70000C00082803D1706840023FF556AF606848
:100D8000B0F5803F07D0B0F5A02F40F08D803068DF
:100D900040F480203060306840F4803030608DE076
:100DA000E068002852D00020C4F2472001210160F1
:100DB000FFF786FD054600BF306880073FF552AF5C
:100DC000FFF77EFD401B0228F6D984E0A0680128C9
:100DD00005D005284ED1306F40F004003067306FE9
:100DE00040F0010030674FE00021C0F8801EFFF79F
:100DF00067FD0546706F80077FF53EAFFFF760FD2A
:100E0000401B0228F6D966E00027C4F247270020DD
:100E10003866FFF755FD022D05460BD1306880017D
:100E20005ED5FFF74DFD401B02284FF00300F5D9BA
:100E300054E700BF306880017FF54FAFFFF740FDFA
:100E4000401B02284FF00300F4D947E70020C4F20A
:100E5000472000210160FFF733FD05463068800719
:100E60007FF507AFFFF72CFD401B02284FF0030072
:100E7000F4D933E7316F002821F001013167316F78
:100E800021F0040131674DD0FFF71AFD054641F20C
:100E9000883700BF306F800756D4FFF711FD401B25
:100EA000B842F7D917E000BF3168002821F480313B
:100EB0003160316821F4802131604FD0FFF700FDAF
:100EC000054600BF306880033FF5B5AEFFF7F8FC7C
:100ED000401B6428F6D9032002B0BDE8F08100BFB2
:100EE00004F11C052FCD08430021CFF6FF7140EA25
:100EF000821001EBC3316FF30F0140EA0560084334
:100F0000706001203866FFF7DBFC04463068800122
:100F10003FF5E3AEFFF7D4FC001B02284FF00300BF
:100F2000F4D9DBE6FFF7CCFC054641F2883700BF79
:100F3000306F800708D5FFF7C3FC401BB8424FF065
:100F40000300F5D9CAE600BFB8F1000F7FF497AEF1
:100F5000306C20F08050306491E600BFFFF7B0FCA9
:100F6000054600BF306880037FF565AEFFF7A8FC3B
:100F7000401B64284FF00300F4D9AFE6411E002067
:100F8000B0EB116F1CBF012070474EF21002CEF281
:100F9000000251604EF62351CEF20001F0230B7097
:100FA0000721906011607047704700007047000093
:100FB00010B590F83C20012A4FF0020251D080F881
:100FC0003D200268D2F804E0D2F808C00C682EF088
:100FD0007003234341F2FF74C4F20004A242536041
:100FE0000EDC40F2FF73C4F200039A4216DCB2F149
:100FF000804F2BD040F20043C4F2000324E000BF36
:1010000040F2FF33C4F201039A4213DC41F60003BD
:10101000C4F200039A4219D0002313E040F6000303
:10102000C4F200039A4211D040F60043C4F2000318
:101030000AE000BF44F20003C4F201039A4205D063
:1010400040F20043C4F201039A4204D149682CF0F3
:101050008003194391600121002280F83D1080F83F
:101060003C20104610BD0000002804BF012070473E
:1010700010B5044690F83D0028B9002084F83C00E3
:10108000204600F01FF8022084F83D002068211D52
:1010900000F0D4FD012084F8460084F83E0084F876
:1010A0003F0084F8400084F8410084F8420084F84E
:1010B000430084F8440084F8450084F83D00002093
:1010C00010BD000080B582B0006840F20041C4F25B
:1010D000000188421CBF02B080BD0020019043F691
:1010E0004000C4F202000168002241F002010160E8
:1010F0000068002100F00200019001981D20FFF718
:101100005FFC1D2002B0BDE88040FFF749BC000035
:1011100090F83D1001291CBF01207047022180F882
:101120003D10006841F2FF72C168C4F200029042B3
:1011300041F00101C1600DDC40F2FF71C4F2000119
:10114000884215DCB0F1804F2AD040F20041C4F251
:10115000000123E040F2FF31C4F20101884213DCB8
:1011600041F60001C4F20001884219D0002113E0C9
:1011700040F60001C4F20001884211D040F600415F
:10118000C4F200010AE000BF44F20001C4F2010110
:10119000884205D040F20041C4F20101884206D1E4
:1011A000816801F00701062904BF0020704701682B
:1011B00041F00101016000207047000080B590F807
:1011C0003C20012A4FF0020200F0C28080F83D204E
:1011D000D0F800C04FF67772DCF8083023EA02023C
:1011E000CCF808200B684F2B28DC1F2B44DD202B6C
:1011F00045D0302B43D0402B40F0AC80D1F804E0F8
:10120000C968DCF82030DCF8202022F00102CCF89C
:101210002020DCF8182022F0F00242EA011123F02D
:101220000A0242EA0E02CCF81810CCF82020DCF8B2
:10123000081041F0470121F0300180E06F2B27DDDD
:10124000B3F5005F48D0B3F5805F7AD0702B40F0E3
:101250008180D1E901E3C968DCF8082043EA0E0384
:1012600022F47F4243EA01211143CCF80810DCF854
:10127000081041F0770162E00BB1102B6AD1DCF865
:10128000081021F07001194341F0070157E000BF39
:10129000502B35D0602B5DD1D1F804E0C968DCF863
:1012A000203023F01003CCF82030DCF81830DCF8C4
:1012B000202023F4704322F0A00243EA013142EAE5
:1012C0000E12CCF81810CCF82020DCF8081041F0F1
:1012D000670121F0100132E0D1E901E3C968DCF8CF
:1012E000082043EA0E0322F47F4243EA012111431E
:1012F000CCF80810DCF8081041F480411FE000BF72
:10130000D1F804E0C968DCF82030DCF8202022F0B5
:101310000102CCF82020DCF8182022F0F00242EA8A
:10132000011123F00A0242EA0E02CCF81810CCF8A0
:101330002020DCF8081041F0570121F02001CCF802
:1013400008100022012180F83D10002180F83C1097
:10135000104680BD0122F5E77047000010B5016816
:1013600004460869800744BFC8685FEA807039D4C2
:101370000869400744BFC8685FEA40703ED4086906
:10138000000744BFC8685FEA007045D40869C0061A
:1013900044BFC8685FEAC0604AD40869C0071CBF80
:1013A000C8685FEAC07051D10869000644BFC868C8
:1013B0005FEA006052D40869400644BFC8685FEA2B
:1013C000406053D40869800646BFC8685FEA806001
:1013D00010BD6FF0200220460A61BDE81040FFF703
:1013E000E5BD00BF6FF00200086101202077886929
:1013F000800743D02046FFF7AFFF45E06FF00400C1
:10140000086102202077886910F4407F40D0204690
:10141000FFF7A2FF42E000BF6FF008000861042060
:101420002077C86980073DD02046FFF795FF3FE051
:101430006FF01000086108202077C86910F4407F21
:101440003AD02046FFF788FF3CE000BF6FF0010074
:101450000861204600F03EF82168A5E76FF08000A3
:1014600008612046FFF7A0FD2168A4E76FF0400067
:101470000861204600F036F82168A3E7204600F016
:1014800025F8204600F024F82168002020776FE737
:10149000204600F01BF8204600F01AF821680020D2
:1014A00020776CE7204600F011F8204600F010F895
:1014B00021680020207769E7204600F007F82046E1
:1014C00000F006F821680020207766E770470000EA
:1014D0007047000040F29420C2F200000121017028
:1014E0007047000070470000FEE70000FEE70000C4
:1014F000FEE700002DE9F04140F200080746C4F283
:101500000208082015460E4654B260F3DF07404635
:101510004FF480410022FFF7CDF940461021002210
:10152000FFF7C8F9384600F041FA40461021012281
:10153000FFF7C0F940464FF48041002246F0800694
:10154000FFF7B8F9404610210022FFF7B3F9304603
:1015500000F02CFA404610210122FFF7ABF9202CB5
:10156000B8BFBDE8F08105EB8500502D3FBF60306E
:10157000C0B242F68871C0F6000121BF7030C0B21F
:1015800043F27801C0F600010D5C0F1840464FF49D
:1015900080410122FFF78EF9404610210022FFF71B
:1015A00089F9284600F002FA404610210122FFF78F
:1015B00081F940464FF480410122FFF77BF9404614
:1015C00010210022FFF776F97878BE78FD7800F0D8
:1015D000EDF9404610210122FFF76CF940464FF427
:1015E00080410122FFF766F9404610210022FFF7F3
:1015F00061F9304600F0DAF9404610210122FFF788
:1016000059F940464FF480410122FFF753F9404613
:1016100010210022FFF74EF9284600F0C7F9404696
:1016200010210122FFF746F9381D057840464FF496
:1016300080410122FFF73EF9404610210022FFF7CA
:1016400039F9284600F0B2F9404610210122FFF78F
:1016500031F940464FF480410122FFF72BF9404613
:1016600010210022FFF726F9002000F09FF94046E4
:1016700010210122BDE8F041FFF71CB9B0B50024EC
:10168000C4F2020420464FF480410022FFF712F911
:10169000204610210022FFF70DF9402000F086F9C6
:1016A000204610210122FFF705F920464FF4804122
:1016B0000022FFF7FFF8204610210022FFF7FAF87A
:1016C000802000F073F9204610210122FFF7F2F884
:1016D0004FF4FC7520464FF480410122FFF7EAF8F1
:1016E000204610210022FFF7E5F8002000F05EF907
:1016F000204610210122FFF7DDF8013DEAD1B0BDFF
:10170000F0B581B00024C4F20204054620464FF42F
:1017100080410022FFF7CEF8204610210022FFF77B
:10172000C9F8402000F042F9204610210122FFF7BD
:10173000C1F820464FF480410022FFF7BBF8204655
:1017400010210022FFF7B6F8802000F02FF9204684
:1017500010210122FFF7AEF86E1E4FF4FC7700BF98
:1017600016F8015F20464FF480410122FFF7A2F8EE
:10177000204610210022FFF79DF8284600F016F9B8
:10178000204610210122FFF795F8013FE8D101B072
:10179000F0BD000010B5FEF77BFF0024C4F2020488
:1017A00020464FF480410122FFF784F820461021A3
:1017B0000122FFF77FF8C820FEF742FF20464FF4D2
:1017C00000510022FFF776F80A20FEF77BFF204643
:1017D0004FF400510122FFF76DF820464FF480418D
:1017E0000022FFF767F8204610210022FFF762F879
:1017F000212000F0DBF8204610210122FFF75AF8E3
:1018000020464FF480410022FFF754F82046102173
:101810000022FFF74FF8C82000F0C8F8204610213A
:101820000122FFF747F820464FF480410022FFF7DE
:1018300041F8204610210022FFF73CF8132000F069
:10184000B5F8204610210122FFF734F820464FF466
:1018500080410022FFF72EF8204610210022FFF7DA
:1018600029F8202000F0A2F8204610210122FFF7DD
:1018700021F820464FF480410022FFF71BF8204654
:1018800010210022FFF716F8092000F08FF82046FB
:1018900010210122FFF70EF83220FEF713FFFFF7A9
:1018A000EDFE0A20FEF70EFF20464FF48041002295
:1018B000FFF700F8204610210022FEF7FBFF08206A
:1018C00000F074F8204610210122FEF7F3FF0A20F1
:1018D000FEF7F8FE20464FF480410022FEF7EAFFB3
:1018E000204610210022FEF7E5FF0C2000F05EF8F4
:1018F000204610210122BDE81040FEF7DBBF0000AA
:101900002DE9F04104460027002818BF013C0820BB
:101910002546C4F2020790460E46002960F3DF0513
:1019200038464FF480414FF0000218BF013EFEF7E9
:10193000C1FF384610210022FEF7BCFF284600F008
:1019400035F8384610210122FEF7B4FF38464FF42F
:101950008041002246F08005FEF7ACFF384610219A
:101960000022FEF7A7FFE8B200F020F83846102169
:101970000122FEF79FFF98F80000002808BFBDE88D
:10198000F08106EB46014D00A8F10106E4B200BF6C
:10199000E9B2C2B22046FFF7ADFDB07806350028A7
:1019A00006F10106F4D1BDE8F0810000B0B50024D5
:1019B000C4F202040546204620210022FEF77AFFE9
:1019C0000220FEF73DFEEA0920468021FEF772FF65
:1019D000204620210122FEF76DFF0220FEF730FE97
:1019E000204620210022FEF765FF0220FEF728FE98
:1019F000C5F3801220468021FEF75CFF204620219F
:101A00000122FEF757FF0220FEF71AFE2046202192
:101A10000022FEF74FFF0220FEF712FEC5F3401230
:101A200020468021FEF746FF204620210122FEF7B6
:101A300041FF0220FEF704FE204620210022FEF78F
:101A400039FF0220FEF7FCFDC5F30012204680217D
:101A5000FEF730FF204620210122FEF72BFF022057
:101A6000FEF7EEFD204620210022FEF723FF022094
:101A7000FEF7E6FDC5F3C00220468021FEF71AFFFF
:101A8000204620210122FEF715FF0220FEF7D8FD97
:101A9000204620210022FEF70DFF0220FEF7D0FD98
:101AA000C5F3800220468021FEF704FF2046202156
:101AB0000122FEF7FFFE0220FEF7C2FD2046202194
:101AC0000022FEF7F7FE0220FEF7BAFDC5F3400242
:101AD00020468021FEF7EEFE204620210122FEF75F
:101AE000E9FE0220FEF7ACFD204620210022FEF791
:101AF000E1FE0220FEF7A4FD05F001022046802150
:101B0000FEF7D8FE204620210122FEF7D3FE022058
:101B1000BDE8B040FEF794BD7047000070B540F2DC
:101B20000044C4F2020420464FF400610022FEF794
:101B3000C1FE20464FF480610122FEF7BBFE04F592
:101B4000806528464FF400610122FEF7B3FE284667
:101B50004FF480610122FEF7ADFE20468021FEF7A2
:101B6000A3FEE8B320464FF400610122FEF7A2FE77
:101B700020464FF480610022FEF79CFE28464FF479
:101B800000610122FEF796FE28464FF48061012293
:101B9000FEF790FE20468021FEF786FE40B32046E9
:101BA0004FF400610122FEF785FE20464FF480616C
:101BB0000122FEF77FFE28464FF400610022002636
:101BC000FEF778FE28464FF480610122FEF772FE90
:101BD00020468021FEF768FE90B1304670BD00BF00
:101BE00020468021FEF760FE0028F9D0342070BD29
:101BF00020468021FEF758FE0028F9D0352070BD20
:101C000020468021FEF750FE0028F9D036263046C7
:101C100070BD000070470000FEF758BE4EF68850B9
:101C2000CEF20000016841F47001016070470000CD
:101C300040F29820C2F20000FFF790BB10B540F6CA
:101C4000FF3E0368C4F2000E40F2004C7045C4F23F
:101C5000010C27DCB0F1804F31D040F20042C4F2D9
:101C6000000290422BD040F60002C4F200029042E3
:101C700025D041F6FF72C4F20002904229DC704583
:101C80003CDCB0F1804F5FD040F20042C4F2000271
:101C9000904259D040F60002C4F20002904253D064
:101CA00056E000BF40F60042C4F20002904206D067
:101CB000604504D00022C4F201029042D9D14A68A2
:101CC00023F07003134341F6FF72C4F20002904206
:101CD000D5DD43F6FF72C4F20102904222DC42F2EB
:101CE0000002C4F2000290422ED00022C4F201028F
:101CF000904229D0604527D02AE000BF40F600423C
:101D0000C4F2000290421FD041F60002C4F2000269
:101D1000904219D041F60042C4F20002904213D022
:101D200016E000BF44F20002C4F2010290420BD060
:101D300044F60002C4F20102904205D044F200428F
:101D4000C4F20102904203D1CA6823F440731343E2
:101D500023F080024B69D1F800E08C681A430260DE
:101D6000C46240F48062C0F828E0624504BF09699B
:101D700001630121416110BDFEE70000ADF5246D56
:101D800043F6300647F20007C4F20206C4F2000729
:101D9000FEF7AAFD82AC201D2C21FEF7EBFB0025EF
:101DA0000895CDE90655CDE90455CDF83C5A306982
:101DB00040F080503061306900F08050CDF83C0A2E
:101DC000DDF83C0ACDF83C5A386840F48040386071
:101DD000386800F48040CDF83C0ADDF83C0A022067
:101DE0008290012085901020869020468895FEF7ED
:101DF00009FF28B1EFF3108072B600BFFEE700BF05
:101E00000F20CDE9040504A80021CDE90655089569
:101E1000FEF712FE20B1EFF3108072B6FEE700BFAE
:101E2000002586950495306846F2B00140F0010027
:101E300030603068002200F001000490049804959E
:101E4000306846F2B00940F004003060306800F0BD
:101E50000400049004980495306840F0020030605B
:101E6000306807F5C83600F0020004900498304648
:101E7000FEF720FD07F5CC3840464FF442610022C2
:101E80004FF4426AFEF716FD07F5CA3420464FF4B8
:101E9000406100224FF4406BFEF70CFD82AFCDF89D
:101EA00008924FF0010930463946CDE98395859572
:101EB000FEF71CFC40463946CDE982A9CDE98455A0
:101EC000FEF714FC20463946CDE982B9CDE98455A8
:101ED000FEF70CFC4CF2C000CDE9820520463946E5
:101EE0008495FEF703FC40F29424C2F2000440F211
:101EF0000041C4F20001204640F8041F43F67F6110
:101F00008595CDE98355CDE90455C0E90115C0E9B2
:101F100003158561FFF7A8F820B1EFF3108072B6C2
:101F2000FEE700BF4FF480500434829082A920461F
:101F3000FFF744F920B1EFF3108072B6FEE700BF5F
:101F40000DF1100820464146FFF732F820B1EFF3BB
:101F5000108072B6FEE700BF02944FF2CC74CFF649
:101F6000FF74FFF717FC0FF2CC7203200221FFF77A
:101F7000C7FC4FF42F70FEF7A5FB40F20C0B42F6A6
:101F8000681A42F68416C2F2000B0027C0F6000A57
:101F9000C0F600060AE000BF51461C22FEF736FAE2
:101FA00040F29429C2F20009543461D0FEF75EF980
:101FB00047F67901C7F6780150FB01F1CA1002EB30
:101FC000D17101EB0111401A00EB40055BF82510BF
:101FD00082A800EB040909F6340059B1012903D0A5
:101FE00002290ED1314600E051461C22FEF70EFABE
:101FF00007E000BF876147610761C760876047608E
:1020000007600BEB8505696809F50560E1B10129F9
:1020100004D0022906D1314601E000BF51461C22FE
:10202000FEF7F4F9A96809F66C00C9B10129B3D02B
:1020300040F294290229C2F20009B5D131461C228E
:10204000FEF7E4F9B0E700BF876147610761C76049
:10205000876047600760A96809F66C000029E5D130
:10206000876147610761C76087604760076097E7DE
:102070000FF2C86203200521FFF742FC4FF4FA700B
:10208000FEF720FB42F26071C0F6000140464FF4BB
:10209000FC72FEF700FA42F69050C0F60000FFF71F
:1020A0002FFB4FF42F70FEF70DFB08F15400019049
:1020B0004FF0000A0BE000BF40464FF4FC71FEF702
:1020C00059FA42F69050C0F60000FFF719FBFFF7EF
:1020D00025FD3528FBD14046FFF712FB00270026DF
:1020E000002489F800A00298FFF712F801E000BF71
:1020F000013F99F80000A8B9FFF710FD342801D17D
:10210000012FF5DAFFF70AFD362803D1022F01DC93
:102110000137EEE7FFF702FD352804BFB4FA84F07B
:102120004409E6E782A8542106FB010901984146CB
:102130004FF4D2720396FEF7E0F940464946542226
:10214000FEF764F9C7EBC7004FF4D272810002EBCF
:10215000800608EB800090F8B121002C00F2B1104D
:1021600000F0C48040F29429FF2AC2F2000900F076
:102170002D8202784144FF2A08F806A081F8A5A123
:1021800000F02482027881F8A6A1FF2A00F01E82C6
:10219000027881F8A7A1FF2A00F018820278FF2AAE
:1021A0004FF0400281F8A82100F010820278FF2A47
:1021B0004FF0600281F8A92100F008820278FF2A1E
:1021C0004FF0300281F8AA2100F000820278FF2A45
:1021D0004FF0180281F8AB2100F0F8810278FF2A55
:1021E0004FF00C0281F8AC2100F0F081027881F808
:1021F000ADA1FF2A00F0EA81027881F8AEA1FF2AA2
:1022000000F0E481027881F8AFA1FF2A00F0DE81BE
:10221000027881F8B0A1FF2A00F0D881E72281F886
:10222000B1210278FF2A00F0D1810278FF2A4FF015
:10223000E70281F8B22100F0C981027881F8B3A1E8
:10224000FF2A00F0C381027881F8B4A1FF2A00F0D0
:10225000BD81027881F8B5A1FF2A00F0B78102782C
:1022600081F8B6A1FF2A00F0B1810278FF2A4FF071
:102270000C0281F8B72100F0A9810278FF2A4FF003
:10228000180281F8B82100F0A1810278FF2A4FF0EE
:10229000300281F8B92100F099810278FF2A4FF0CD
:1022A000600281F8BA2100F091810278FF2A4FF094
:1022B000400281F8BB2100F08981027881F8BCA13D
:1022C000FF2A00F08381027881F8BDA1FF2A00F087
:1022D0007D81007881F8BEA1FF2800F0778140461B
:1022E00081F8BFA1FFF70CFA64E100BFE72A4FF0C5
:1022F00001030DD040F29429C2F20009FF2A1CBF4D
:10230000002308F80630E72A4FF0010608D10FE055
:1023100040F29429C2F20009E72A4FF0010607D0E3
:10232000FF2A05D001EB080282F8A5A102781E461B
:10233000E72A4FF0010307D0FF2A05D001EB08027E
:1023400082F8A6A102783346E72A4FF0010607D0AB
:10235000FF2A05D001EB080282F8A7A102781E46E9
:10236000E72A4FF0010307D0FF2A05D001EB08024E
:1023700082F8A8A102783346E72A4FF0010607D079
:10238000FF2A05D001EB080282F8A9A102781E46B7
:10239000E72A4FF0010307D0FF2A05D001EB08021E
:1023A00082F8AAA102783346E72A4FF0010607D047
:1023B000FF2A05D001EB080282F8ABA102781E4685
:1023C000E72A4FF0010307D0FF2A05D001EB0802EE
:1023D00082F8ACA102783346E72A4FF0010608D014
:1023E000FF2A06D001EB0802402682F8AD61027890
:1023F0001E46E72A4FF0010308D0FF2A06D001EB62
:102400000802602382F8AE3102783346E72A4FF0A3
:10241000010608D0FF2A06D001EB0802302682F818
:10242000AF6102781E46E72A4FF0010308D0FF2A69
:1024300006D001EB0802182382F8B0310278334647
:10244000E72A4FF0010608D0FF2A06D001EB080268
:102450000C2682F8B16102781E46E72A4FF001038C
:1024600008D0FF2A06D001EB08020C2382F8B23113
:1024700002783346E72A4FF0010608D0FF2A06D03B
:1024800001EB0802182682F8B36102781E46E72A9B
:102490004FF0010308D0FF2A06D001EB08023023D9
:1024A00082F8B43102783346E72A4FF0010608D0AB
:1024B000FF2A06D001EB0802602682F8B561027897
:1024C0001E46E72A4FF0010308D0FF2A06D001EB91
:1024D0000802402382F8B63102783346E72A4FF0EB
:1024E000010607D0FF2A05D001EB080282F8B7A148
:1024F00002781E46E72A4FF0010307D0FF2A05D0D5
:1025000001EB080282F8B8A102783346E72A4FF0BF
:10251000010607D0FF2A05D001EB080282F8B9A115
:1025200002781E46E72A4FF0010307D0FF2A05D0A4
:1025300001EB080282F8BAA102783346E72A4FF08D
:10254000010607D0FF2A05D001EB080282F8BBA1E3
:1025500002781E46E72A4FF0010307D0FF2A05D074
:1025600001EB080282F8BCA102783346E72A4FF05B
:10257000010607D0FF2A05D001EB080282F8BDA1B1
:1025800002781E46E72A4FF0010507D0FF2A05D042
:1025900001EB080282F8BEA102783546E72A15D081
:1025A000FF2A13D001EB080080F8BFA14046FFF7D7
:1025B000A7F875B9039E0136192E7FF492AD42F645
:1025C00098314046C0F6000108E000BF4046FFF7E2
:1025D00097F842F6A0114046C0F600014FF4FC7295
:1025E000FDF759FF404682ACFFF78AF84FF4FA60D6
:1025F000FEF768F840F2A31518F8050008EB05018E
:1026000081F85400404608F805A0FFF779F801204A
:10261000FEF758F805F15400013D5428ECD84FF26C
:10262000CC77CFF6FF7709E042F66811C0F60001DB
:102630001C22FDF7EBFE54373FF43EADFDF716FECE
:1026400047F67901C7F6780150FB01F1CA1002EB99
:10265000D17101EB0111401A00EB40065BF8261026
:10266000E51905F6340089B1012907D002291BD1EB
:1026700042F68411C0F6000104E000BF42F6681182
:10268000C0F600011C22FDF7C1FE0DE0C0F818A045
:10269000C0F814A0C0F810A0C0F80CA0C0F808A0A2
:1026A000C0F804A0C0F800A00BEB8606716805F521
:1026B0000560E9B1012907D002290CD142F6841145
:1026C000C0F6000104E000BF42F66811C0F6000148
:1026D0001C22FDF79BFEB16805F66C00D9B10129FB
:1026E000A2D00229A7D142F68411C0F600019FE7CB
:1026F000C0F818A0C0F814A0C0F810A0C0F80CA032
:10270000C0F808A0C0F804A0C0F800A0B16805F6A1
:102710006C000029E3D1C0F818A0C0F814A0C0F8DC
:1027200010A0C0F80CA0C0F808A0C0F804A0C0F821
:1027300000A080E7446562756731000044656275FA
:1027400067340000F1EE100A4FF6FF71C0F2C0319D
:1027500020EA010040F04070E1EE100A70470000EE
:102760000000000000000000000000000000000069
:102770000000000000000000000000000000000059
:102780000000000000000000000000000000000049
:102790000000000000000000000000000000000039
:1027A0000000000000000000000000000000000029
:1027B0000000000000000000000000000000000019
:1027C0000000000000000000000000000000000009
:1027D00000000000000000000000000000000000F9
:1027E00000000000000000000000000000000000E9
:1027F00000000000000000000000000000000000D9
:1028000000000000000000000000000000000000C8
:1028100000000000000000000000000000000000B8
:1028200000000000000000000000000000000000A8
:102830000000000000000000000000000000000098
:102840000000000000000000000000000000000088
:102850000000000000000000000000000000000078
:102860000000000000000000000000000000000068
:102870000000000000000000000000000000000058
:102880000000000000000000000000000000000048
:102890000000000000000000000000000000000038
:1028A0000000000000000000000000000000000028
:1028B0000000000000000000000000000000000018
:1028C0000000000000000000000000000000000008
:1028D00000000000000000000000000000000000F8
:1028E00000000000000000000000000000000000E8
:1028F00000000000000000000000000000000000D8
:1029000000000000000000000000000000406030F7
:10291000180C0C183060400000000000000000009F
:1029200000000000000000000000000000000000A7
:102930000000000000000000000000000000000097
:102940000000000000000000000000000000000087
:102950000000000000000000000000000000000077
:10296000010203040607080900000000000000003F
:102970000000000000E7E700000000000000000089
:102980000000000000000000000000000000000047
:1029900000FFFF0000000000000000000000000039
:1029A0000000000000000000000000000000000027
:1029B0000000000000000000000000000000000017
:1029C0000000000000000000000000000000000007
:1029D00000000000000000000000000000000000F7
:1029E00000000000000000000000000000000000E7
:1029F00000000000000000000000000000000000D7
:102A000000000000000000000000000000B8A8085E
:102A1000080898F000B8E8080808D86800B8E8087E
:102A20000808D86800B8A808080808080058B800BE
:102A30000000000000000000000000000000000096
:102A40000000000000000000000000000000000086
:102A50000000000000000000000000000000000076
:102A600000171E101010171C00171D101010191D34
:102A7000001E0F01010101010011111111111B1F95
:102A8000001613000000000000000000000000001D
:102A90000000000000000000000000000000000036
:102AA00000000000000000000000F880808080F836
:102AB0000000C040404040C00000C000000000C016
:102AC000000000000000C040404040F80000C80086
:102AD00000C0404040C00000C040404040F80000FE
:102AE00000000000000000000000000000000000E6
:102AF00000000000000000000000000000000808C6
:102B00000808080F00000F080808080F00000F0849
:102B10000808080F0000000000000F080808080F50
:102B200000000F00000F0909090900000F0808083C
:102B3000080F00000C0C0000000000000000000066
:102B40000000000000000000000000000000000085
:102B50000000000000000000000000000000000075
:102B60000000000000000000000000000000000065
:102B70000000000000000000000000000000000055
:102B80000000000000000000000000000000000045
:102B90000000000000000000000000000000000035
:102BA0000000000000000000000000000000000025
:102BB0000000000000000000000000000000000015
:102BC0000000000000000000000000000000000005
:102BD00000000000000000000000000000000000F5
:102BE00000000000000000000000000000000000E5
:102BF0000000000000000000FFDF000000000000F7
:102C000000000000000000FFFF00000000000000C6
:102C1000000000000000000000000000FFF70000BE
:102C20000000000000000000000000FFFF000000A6
:102C300000FFFF0000000000000000000000000096
:102C4000000000000000000000000000FF7700000E
:102C50000000000000000000000000FFFF00000076
:102C6000FFFF030103010301030101FFFF00000057
:102C7000FFDD00000000000000000000000000FF79
:102C8000FF00000000FFFF00000000000000000047
:102C90000000000000000000000000000000000034
:102CA000FE7F0000000000FCFCFC4000000000FF74
:102CB000FF000000FF7D000000000000000000FF9A
:102CC000FF000000DFFF0000000000FCFCFC000033
:102CD000000000FFFF00000000FFFF0000000000F8
:102CE00000000000000000000000000000000000E4
:102CF00000000000FFFF80C080C088FFFFFF90C081
:102D000080C080FFFF000000FFF7C08080C080808F
:102D1000C08080FFFF000000FFDF80C080C080FF18
:102D2000FFFFC48080C080FFFF00000000F3F300BD
:102D30000000000000000000000000000000000093
:102D40000000000000000000000000000000000083
:102D50000000000000000000000000000000000073
:102D60000000000000000000000000000000000063
:102D70000000000001000000000000000000000052
:102D80000000000000000000000000000000000043
:102D90000000000000000000000000000000000033
:102DA0000000000000000000000000000000000023
:102DB0000000000000000000000000000000000013
:102DC0000000000000000000000000000000000003
:102DD00000000000000000000000000000000000F3
:102DE00000000000000000000000001818D8D8D82B
:102DF000F80020F8989898888000009898989898FB
:102E0000F8100000000000000000F8D8D898D8D8CA
:102E10000000C00000C00000C0C040C00020F89802
:102E20001800C0C0C0C00000C0C0C0C00000C0C00A
:102E3000C080000000000000000000000000000C46
:102E40000C0C040C0F00020F0D0D090D0F00020FEA
:102E50000D0D050D0D0000000000000000000C0825
:102E60000C0C0D0F00000F0C0C0F01000F010000E7
:102E700000000F0100000F0F0F0F00000F000000F7
:102E800000000F0F0F0F0000000000000000000006
:102E90000000000000000000000000000000000032
:102EA000C0C0C0C0C00000C0C0C0C00000C0C0C022
:102EB000C00000C0C080C00000C040C0C000000012
:102EC00000F898D8D8D800000000000000000000EA
:102ED00000000000000000000000000000000000F2
:102EE00000000000000000000000000000000000E2
:102EF00000000000FF1C0C080F04010F0000000080
:102F0000020F0D0F0F00000F0D0F0F00000F0F0D20
:102F10000F000000000C0C0C0C0F00000000000063
:102F200000000000000000000000000000000000A1
:102F30000000000000000000000000000000000091
:102F40000000000000000000000000000000000081
:102F50000000000000000000000000000000000071
:102F60000000000000000000000000000000000061
:102F70000000000000000000000000000000000051
:102F80000000000000000000000000000000005FE2
:102F900000000007000700147F147F14242A7F2AF2
:102FA00012231308646236495522500005030000BD
:102FB000001C2241000041221C0014083E08140895
:102FC000083E0808005030000008080808080060A3
:102FD00060000020100804023E5149453E00427F37
:102FE000400042615149462141454B311814127F3E
:102FF0001027454545393C4A4949300171090503C7
:103000003649494936064949291E0036360000002E
:103010005636000008142241001414141414004100
:103020002214080201510906324979413E7E1111EC
:10303000117E7F494949363E414141227F4141222B
:103040001C7F494949417F090909013E4149497AA3
:103050007F0808087F00417F41002040413F017FF9
:10306000081422417F404040407F020C027F7F04D1
:1030700008107F3E4141413E7F090909063E41510A
:10308000215E7F09192946464949493101017F01DD
:10309000013F4040403F1F2040201F3F4038403FFD
:1030A0006314081463070870080761514945430019
:1030B0007F41410002040810200041417F000402CA
:1030C00001020440404040400001020400205454EA
:1030D00054787F4844443838444444203844444871
:1030E0007F3854545418087E0901020C5252523E43
:1030F0007F0804047800447D40002040443D007F68
:103100001028440000417F40007C041804787C08AB
:1031100004047838444444387C1414140808141403
:10312000187C7C080404084854545420043F44404C
:10313000203C4040207C1C2040201C3C4030403C37
:1031400044281028440C5050503C4464544C4400D3
:103150000836410000007F000000413608001008DA
:1031600008100878464146780000000090310008B9
:103170000000002050010000C4010008D831000800
:103180005001002098070000200200080000000005
:1031900032014210031524F4B202292CE914290C3F
:1031A00069186908690C6928290CA910A94429081B
:1031B000E928091270A96409125CA90CA938A904AC
:1031C000E94C690C6920A940091210E928E9602935
:0831D0000400000000000000F3
:040000050800018965
:00000001FF
