:020000040800F2
:10000000800800206102000849130008411300081D
:100010004513000895040008091D000800000000B1
:10002000000000000000000000000000A51B000808
:100030001905000800000000A91A0008A91B000803
:100040007B0200087B0200087B0200087B0200089C
:100050007B0200087B0200087B0200087B0200088C
:100060007B0200087B0200087B0200087B0200087C
:100070007B0200087B0200087B0200087B0200086C
:100080007B0200087B0200087B0200087B0200085C
:100090007B0200087B0200087B0200087B0200084C
:1000A0007B0200087B0200087B0200087B0200083C
:1000B0007B020008C11B00087B0200087B020008CD
:1000C0007B0200087B0200087B0200087B0200081C
:1000D0007B0200087B0200087B0200087B0200080C
:1000E0007B0200087B0200087B0200087B020008FC
:1000F0007B0200087B0200087B0200087B020008EC
:100100007B0200087B0200087B0200087B020008DB
:100110007B0200087B0200087B0200087B020008CB
:100120007B0200087B0200087B0200087B020008BB
:100130007B02000800000000000000007B020008B5
:100140007B0200087B0200087B0200087B0200089B
:100150007B0200087B0200087B0200087B0200088B
:100160007B0200087B0200087B0200087B0200087B
:100170007B0200087B020008000000007B020008F0
:100180007B0200087B02000800F002F800F03EF855
:100190000AA090E8000C82448344AAF10107DA45E2
:1001A00001D100F033F8AFF2090EBAE80F0013F0F6
:1001B000010F18BFFB1A43F001031847F82700008E
:1001C00018280000103A24BF78C878C1FAD852071E
:1001D00024BF30C830C144BF04680C6070470000C1
:1001E0000023002400250026103A28BF78C1FBD840
:1001F000520728BF30C148BF0B6070471FB502F0DF
:1002000084F800F0DAF81FBD10B510BD00F008F951
:100210001146FFF7F3FF01F079FD00F026F903B472
:10022000FFF7F2FF03BC00F02DF900000B49D1F8F5
:1002300000C04A685CF8043B1068184442F8040B9C
:100240008C4528BFA1F1DC0C8A4228BFA1F1DC0259
:10025000C1F800C04A6020F000407047C40100208F
:100260000948804709480047FEE7FEE7FEE7FEE74A
:10027000FEE7FEE7FEE7FEE7FEE7FEE70448054986
:10028000054A064B70470000AD1B000889010008B5
:1002900080020020800800208004002080040020CC
:1002A00053EA020C00F069802DE9F04B4FF0000694
:1002B000002B1FBFB3FA83F503FA05F424FA05F601
:1002C0005E4012BF1643B2FA82F502FA05F4C5F198
:1002D00020051EBF22FA05FC44EA0C04203556EA2C
:1002E000044C4FEA144418BF641C4FF000084FF050
:1002F0000009904271EB030C39D3002919BFB1FA00
:1003000081F701FA07F6B0FA80F700FA07F6C7F1AD
:1003100020071EBF20FA07FC46EA0C062037B6FB72
:10032000F4FCA7EB0507103F07F01F0BCBF12006ED
:100330002CFA06F60CFA0BFB44BFB3460026202F1E
:10034000A4BF5E464FF0000B5BEA060C08BF4FF0FF
:10035000010B19EB0B0948EB0608ABFB027C06FB13
:1003600002CC0BFB03CCC01B71EB0C01C1E70B46AD
:10037000024641464846BDE8F08B13B5084318BF16
:100380004FF0FF300146AFF30080BDE81C407047DE
:100390000B4910B5A1F17C020A4CC2E93712372192
:1003A00006E000EB104342F82130074B00FB03400E
:1003B0000B1EA1F10101F4DC10BD0120E8E70000F3
:1003C00064010020E119D666CD0D01004FF0000256
:1003D00000B5134694469646203922BFA0E80C503B
:1003E000A0E80C50B1F12001BFF4F7AF090728BF16
:1003F000A0E80C5048BF0CC05DF804EB890028BF92
:1004000040F8042B08BF704748BF20F8022B11F0BA
:10041000804F18BF00F8012B704770477047704736
:10042000754600F02BF8AE4605006946534620F0AD
:100430000700854618B020B5FFF720FFBDE8204033
:100440004FF000064FF000074FF000084FF0000B90
:10045000AC46ACE8C009ACE8C009ACE8C009ACE8FF
:10046000C00921F007018D46704710B50446AFF36F
:1004700000802046BDE81040FFF7D1BE004870471D
:10048000CC01002001491820ABBEFEE72600020087
:1004900070470000FEE7000041F2040140F208034B
:1004A000CEF20001C2F200030A68D3F800C04DF694
:1004B0008363C4F21B33ACFB033C4FEA9C435843B9
:1004C00009E000BF0B689B1A834228BF70470B6886
:1004D0009B1A834207D20B689B1A834203D20B6894
:1004E0009B1A8342EED370474EF6FC50CEF20000CA
:1004F0000168C90148BF7047016841F0807101601F
:1005000041F20000CEF2000000214160016841F09C
:10051000010101607047000070470000B0B504465B
:1005200000F0FAF8054640F20000C2F20000007840
:10053000611C18BF044400BF00F0EEF8401BA0424D
:10054000FAD3B0BD2DE9F04F82B000F13E4241F642
:10055000004502F1FF77C4F2020508224FEAB726F0
:10056000A84208BF0722072E38BF4FEAB7224FF034
:10057000010A002400274FF00008009208E000BFA5
:10058000023708F10108202F04F1040400F0B480C0
:100590000E680AFA08F916EA090FF1D0D1F804A09A
:1005A0000AF0030BABF10106012E17D8032286686F
:1005B00002FA07FECA6826EA0E06BA403243826093
:1005C0004268CAF3001522EA090205FA08F54FEA63
:1005D000480C6FEA0E062A4342600BE00322BA4041
:1005E000D643BBF1030FBC4604D1BC464FF0030B0E
:1005F00022E000BFC2688D68324005FA0CF52A433C
:10060000BBF1020FC26017D16FF0030202EA580279
:10061000024404F01C030F25D2F820E005FA03FA87
:100620000D692EEA0A0E05FA03F343EA0E0313627C
:10063000D1F804A00AF0030B02680BFA0CF3324065
:100640001A431AF4403F4FF0010A026098D000228A
:1006500043F644030192C4F202031A6843F6004EC3
:1006600042F480421A601A68C4F2010E02F4804219
:100670000192019A28F003024FF6084C7244CFF61B
:10068000FF7C52F80C3004F00C060F25B540AB434C
:10069000009D05FA06F6334342F80C30DEF80820D8
:1006A0004B6842EA090643F60C4CDD0258BF22EAC9
:1006B0000906CEF80860C4F2010CDCF800209D02A7
:1006C00042EA090658BF22EA0906CCF80060DEF8C3
:1006D00004209D0342EA090658BF22EA0906CEF823
:1006E0000460DEF80020DB0342EA090658BF22EA74
:1006F0000906CEF8006043E702B0BDE8F08F0000C5
:100700000069084018BF012070470000002A08BF98
:10071000090481617047000040F27820C2F20000B5
:100720000068704740F2000040F27821C2F20000F9
:10073000C2F2000100780A681044086070470000A7
:1007400080B543F60040C4F20200016841F4007134
:100750000160016841F480610160016841F48071C9
:100760000160032000F084F80F2000F005F800F08D
:1007700027F8002080BD000070B540F20006C2F2EC
:10078000000640F208013278C2F200014FF47A7399
:100790000968B3FBF2F20446B1FBF2F1084600F03F
:1007A00019FB0F2C4FF0010508D838B94FF0FF3076
:1007B00021460022002500F02FF87460284670BD05
:1007C00082B0002043F640010190C4F202014A6861
:1007D00042F480424A604A6802F480420192019ADF
:1007E0000090086840F080500860086800F0805071
:1007F0000090009802B07047002848BF704700F092
:100800001F01012202FA01F14EF200124009CEF25C
:10081000000242F82010704710B54EF60C5CCEF284
:10082000000CDCF80030C3F3022E8EF00704042C19
:1008300028BF0424BEF103034FF0FF3E0EFA04F478
:1008400038BF0023A14399400EFA03F39A431143A2
:1008500000F00F02043A624409010C3200F16043D7
:10086000B0F1FF3FC8BF03F56442117010BD000036
:100870004EF60C51CEF200010A684FF6FF031A4003
:1008800060F30A2242F0806040F0FD70086070471B
:100890002DE9F041002800F08B8043F60808C4F2EF
:1008A00002080446D8F8F8030D4600F00700884215
:1008B00007D288F8F853D8F8F80300F00700A842E8
:1008C00076D12068810717D5410705D5D8F80010E3
:1008D00041F4E051C8F80010010705D5D8F8001020
:1008E00041F46041C8F80010D8F80010A26821F067
:1008F000F0011143C8F80010C0073FD1D8F8F80341
:1009000000F00700A84207D988F8F853D8F8F80390
:1009100000F00700A8424BD12068410707D5D8F85E
:100920000010E26821F4E0511143C8F800100007FC
:1009300008D5D8F80000216920F4604040EAC100E1
:10094000C8F8000000F054F8D8F8001042F2303235
:10095000C1F30311C0F60002515C40F2080220FA14
:1009600001F140F20400C2F200000068C2F200028D
:100970001160FFF701FF0020BDE8F0816068811E73
:10098000022907D258F8081C89015CBF0120BDE884
:10099000F08111E0012807D158F8081C89035CBFD9
:1009A0000120BDE8F08107E058F8081C890703D44E
:1009B0000120BDE8F08100BFD8F8001021F003014C
:1009C0000843C8F80000FFF7A7FE064641F2883743
:1009D000D8F80000616800F00C00B0EB810F8DD0FA
:1009E000FFF79AFE801BB842F2D90320BDE8F081E0
:1009F00010B543F60404C4F20204606800F00C0071
:100A000008280BD0042819BF42F20040C0F2F400BD
:100A100047F64000C0F27D1010BD00BF206821687D
:100A20002368490247F64001C0F27D1100F03F0201
:100A3000C3F388105CBF42F20041C0F2F401A1FB95
:100A400000010023FFF72CFC21680222C1F30141C1
:100A500002EB4101B0FBF1F010BD00002DE9F041C7
:100A600082B000286AD00446007843F60006C0072A
:100A7000C4F202060BD0B06800F00C00042840F06D
:100A8000A1803068800302D56068002856D02078A5
:100A900080071AD5B06810F00C0F09D0B06800F0CC
:100AA0000C00082840F0A8807068400200F1A48083
:100AB0003068800702D5E06801283FD1306821699D
:100AC00020F0F80040EAC10030602078000739D4F7
:100AD000207840074ED4A5695DB3B06800F00C00E3
:100AE000082840F0BD80012D28D07068E16900F42D
:100AF00080028A4222D1216A00F03F028A421DD13F
:100B000047F6C071626A0140B1EB821F16D1A26A3A
:100B10000023CFF6FF7303EBC23200F440316FF3D2
:100B20000F0291420AD1E16A00F07060B0EB016FF0
:100B300004D1002002B0BDE8F08100BF012002B066
:100B4000BDE8F0816069002840F20000C4F247204F
:100B500076D00121C0F8801EFFF7DEFD054600BFFC
:100B6000706F8007B4D4FFF7D7FD401B0228F7D978
:100B7000DDE000BF306C10F080580AD100200190F9
:100B8000306C40F080503064306C00F08050019048
:100B9000019847F20007C4F200073868C00541D445
:100BA000386840F480703860FFF7B6FD054600BF36
:100BB0003868C00536D4FFF7AFFD401B0228F7D9CF
:100BC000B5E000BFB06800F00C00082803D17068E1
:100BD00040023FF556AF6068B0F5803F07D0B0F5F2
:100BE000A02F40F08D80306840F480203060306865
:100BF00040F4803030608DE0E068002852D0002062
:100C0000C4F2472001210160FFF786FD054600BFC1
:100C1000306880073FF552AFFFF77EFD401B02288A
:100C2000F6D984E0A068012805D005284ED1306FA0
:100C300040F004003067306F40F0010030674FE053
:100C40000021C0F8801EFFF767FD0546706F800722
:100C50007FF53EAFFFF760FD401B0228F6D966E046
:100C60000027C4F2472700203866FFF755FD022D04
:100C700005460BD1306880015ED5FFF74DFD401B66
:100C800002284FF00300F5D954E700BF3068800117
:100C90007FF54FAFFFF740FD401B02284FF00300E8
:100CA000F4D947E70020C4F2472000210160FFF794
:100CB00033FD0546306880077FF507AFFFF72CFD51
:100CC000401B02284FF00300F4D933E7316F0028AE
:100CD00021F001013167316F21F0040131674DD0FE
:100CE000FFF71AFD054641F2883700BF306F8007D5
:100CF00056D4FFF711FD401BB842F7D917E000BFEB
:100D00003168002821F480313160316821F480217C
:100D100031604FD0FFF700FD054600BF306880030B
:100D20003FF5B5AEFFF7F8FC401B6428F6D9032069
:100D300002B0BDE8F08100BF04F11C052FCD0843CF
:100D40000021CFF6FF7140EA821001EBC3316FF34F
:100D50000F0140EA05600843706001203866FFF724
:100D6000DBFC0446306880013FF5E3AEFFF7D4FCBE
:100D7000001B02284FF00300F4D9DBE6FFF7CCFCA0
:100D8000054641F2883700BF306F800708D5FFF76E
:100D9000C3FC401BB8424FF00300F5D9CAE600BFC0
:100DA000B8F1000F7FF497AE306C20F080503064C3
:100DB00091E600BFFFF7B0FC054600BF3068800336
:100DC0007FF565AEFFF7A8FC401B64284FF00300D9
:100DD000F4D9AFE6411E0020B0EB116F1CBF01201B
:100DE00070474EF21002CEF2000251604EF62351CF
:100DF000CEF20001F0230B70072190601160704764
:100E0000704700007047000010B590F83C20012AA0
:100E10004FF0020251D080F83D200268D2F804E081
:100E2000D2F808C00C682EF07003234341F2FF741F
:100E3000C4F20004A24253600EDC40F2FF73C4F21D
:100E400000039A4216DCB2F1804F2BD040F20043EF
:100E5000C4F2000324E000BF40F2FF33C4F20103F8
:100E60009A4213DC41F60003C4F200039A4219D0FF
:100E7000002313E040F60003C4F200039A4211D0AD
:100E800040F60043C4F200030AE000BF44F200034E
:100E9000C4F201039A4205D040F20043C4F20103B8
:100EA0009A4204D149682CF08003194391600121D2
:100EB000002280F83D1080F83C20104610BD000054
:100EC000002804BF0120704710B5044690F83D008B
:100ED00028B9002084F83C00204600F01FF80220CA
:100EE00084F83D002068211D00F070FE012084F888
:100EF000460084F83E0084F83F0084F8400084F8FF
:100F0000410084F8420084F8430084F8440084F8E7
:100F1000450084F83D00002010BD000080B582B07F
:100F2000006840F20041C4F2000188421CBF02B0D8
:100F300080BD0020019043F64000C4F20200016829
:100F4000002241F0020101600068002100F002006F
:100F5000019001981D20FFF75FFC1D2002B0BDE845
:100F60008040FFF749BC000090F83D1001291CBFEC
:100F700001207047022180F83D10006841F2FF72A5
:100F8000C168C4F20002904241F00101C1600DDC71
:100F900040F2FF71C4F20001884215DCB0F1804FCD
:100FA0002AD040F20041C4F2000123E040F2FF31B8
:100FB000C4F20101884213DC41F60001C4F20001D1
:100FC000884219D0002113E040F60001C4F200016C
:100FD000884211D040F60041C4F200010AE000BF8F
:100FE00044F20001C4F20101884205D040F2004100
:100FF000C4F20101884206D1816801F00701062987
:1010000004BF00207047016841F001010160002029
:101010007047000080B590F83C20012A4FF0020292
:1010200000F0C28080F83D20D0F800C04FF6777203
:10103000DCF8083023EA0202CCF808200B684F2BBA
:1010400028DC1F2B44DD202B45D0302B43D0402BF8
:1010500040F0AC80D1F804E0C968DCF82030DCF85E
:10106000202022F00102CCF82020DCF8182022F009
:10107000F00242EA011123F00A0242EA0E02CCF821
:101080001810CCF82020DCF8081041F0470121F0BE
:10109000300180E06F2B27DDB3F5005F48D0B3F55A
:1010A000805F7AD0702B40F08180D1E901E3C9687C
:1010B000DCF8082043EA0E0322F47F4243EA0121D0
:1010C0001143CCF80810DCF8081041F0770162E019
:1010D0000BB1102B6AD1DCF8081021F07001194314
:1010E00041F0070157E000BF502B35D0602B5DD198
:1010F000D1F804E0C968DCF8203023F01003CCF804
:101100002030DCF81830DCF8202023F4704322F083
:10111000A00243EA013142EA0E12CCF81810CCF8D2
:101120002020DCF8081041F0670121F0100132E0C6
:10113000D1E901E3C968DCF8082043EA0E0322F490
:101140007F4243EA01211143CCF80810DCF8081073
:1011500041F480411FE000BFD1F804E0C968DCF829
:101160002030DCF8202022F00102CCF82020DCF82E
:10117000182022F0F00242EA011123F00A0242EAAA
:101180000E02CCF81810CCF82020DCF8081041F042
:10119000570121F02001CCF808100022012180F82D
:1011A0003D10002180F83C10104680BD0122F5E77B
:1011B0007047000010B5016804460869800744BF05
:1011C000C8685FEA807039D40869400744BFC868BE
:1011D0005FEA40703ED40869000744BFC8685FEA10
:1011E000007045D40869C00644BFC8685FEAC060A3
:1011F0004AD40869C0071CBFC8685FEAC07051D1F3
:101200000869000644BFC8685FEA006052D40869F4
:10121000400644BFC8685FEA406053D4086980064E
:1012200046BFC8685FEA806010BD6FF020022046AC
:101230000A61BDE81040FFF7E5BD00BF6FF0020096
:101240000861012020778869800743D02046FFF796
:10125000AFFF45E06FF00400086102202077886945
:1012600010F4407F40D02046FFF7A2FF42E000BFCD
:101270006FF00800086104202077C86980073DD01E
:101280002046FFF795FF3FE06FF01000086108204F
:101290002077C86910F4407F3AD02046FFF788FFD6
:1012A0003CE000BF6FF001000861204600F03EF80E
:1012B0002168A5E76FF0800008612046FFF7A0FDD8
:1012C0002168A4E76FF040000861204600F036F87E
:1012D0002168A3E7204600F025F8204600F024F816
:1012E0002168002020776FE7204600F01BF8204699
:1012F00000F01AF82168002020776CE7204600F003
:1013000011F8204600F010F821680020207769E7E6
:10131000204600F007F8204600F006F8216800207B
:10132000207766E7704700007047000040F22C20ED
:10133000C2F20000012101707047000070470000F8
:10134000FEE70000FEE70000FEE70000B0B5002465
:10135000C4F2020420464FF480410022FFF7D6F980
:10136000204610210022FFF7D1F9402000F0E6FAD4
:10137000204610210122FFF7C9F920464FF4804191
:101380000022FFF7C3F9204610210022FFF7BEF923
:10139000802000F0D3FA204610210122FFF7B6F991
:1013A0004FF4FC7520464FF480410122FFF7AEF95F
:1013B000204610210022FFF7A9F9002000F0BEFA14
:1013C000204610210122FFF7A1F9013DEAD1B0BD6D
:1013D000F0B581B00024C4F20204054620464FF463
:1013E00080410022FFF792F9204610210022FFF7EA
:1013F0008DF9402000F0A2FA204610210122FFF7CB
:1014000085F920464FF480410022FFF77FF92046FE
:1014100010210022FFF77AF9802000F08FFA204691
:1014200010210122FFF772F96E1E4FF4FC7700BF06
:1014300016F8015F20464FF480410122FFF766F95C
:10144000204610210022FFF761F9284600F076FAC5
:10145000204610210122FFF759F9013FE8D101B0E0
:10146000F0BD000010B5FFF73FF80024C4F20204FD
:1014700020464FF480410122FFF748F92046102111
:101480000122FFF743F9C820FFF706F820464FF482
:1014900000510022FFF73AF90A20FFF73FF82046F3
:1014A0004FF400510122FFF731F920464FF48041FB
:1014B0000022FFF72BF9204610210022FFF726F922
:1014C000212000F03BFA204610210122FFF71EF9EF
:1014D00020464FF480410022FFF718F920461021E2
:1014E0000022FFF713F9C82000F028FA2046102147
:1014F0000122FFF70BF920464FF480410022FFF74D
:1015000005F9204610210022FFF700F9132000F012
:1015100015FA204610210122FFF7F8F820464FF473
:1015200080410022FFF7F2F8204610210022FFF749
:10153000EDF8202000F002FA204610210122FFF7EA
:10154000E5F820464FF480410022FFF7DFF82046FF
:1015500010210022FFF7DAF8092000F0EFF9204609
:1015600010210122FFF7D2F83220FEF7D7FFFFF754
:10157000EDFE0A20FEF7D2FF20464FF48041002204
:10158000FFF7C4F8204610210022FFF7BFF808201B
:1015900000F0D4F9204610210122FFF7B7F80A2005
:1015A000FEF7BCFF20464FF480410022FFF7AEF863
:1015B000204610210022FFF7A9F80C2000F0BEF908
:1015C000204610210122BDE81040FFF79FB800001F
:1015D0002DE9F04F8FB00026C4F202060E92884625
:1015E00007464FF00809044630464FF48041002278
:1015F0001D4669F3DF04FFF789F830461021002209
:10160000FFF784F8204600F099F9304610210122B6
:10161000FFF77CF830464FF48041002248F0800408
:10162000FFF774F8304610210022FFF76FF82046CC
:1016300000F084F9304610210122FFF767F8002DF1
:101640000D9500F077810E9D07F1010C05EB850BE0
:10165000A8EB050105EB450AA8EB0B000B9169F31C
:10166000DF0CB91CA8EB45020790A8EB4A000A92D0
:1016700069F3DF01FA1CA8EB0A0306905FFA8CF00D
:10168000099369F3DF023B1DA8EB85040590C8B2FE
:10169000089469F3DF037C1D0490D0B269F3DF0482
:1016A00006370390D8B269F3DF070290E0B20190E9
:1016B000F8B200906F004FEA85084FEA4A09C5EB7F
:1016C000C50000250C9019E018984FF48041445D46
:1016D00030460122FFF71AF8304610210022FFF7AA
:1016E00015F8204600F02AF9304610210122FFF7B4
:1016F0000DF80D980135A84200F01C810E98854226
:1017000088BFAF4202D8AF422CD357E00B984FF4BA
:101710008041441930460022FEF7F8FF3046102180
:101720000022FEF7F3FF059800F008F9304610217B
:101730000122FEF7EBFF30464FF48041002244F0D7
:101740008004FEF7E3FF304610210022FEF7DEFFA3
:10175000E0B200F0F3F8304610210122FEF7D6FF88
:10176000AF422BD2AA4529D90A984FF48041441997
:1017700030460022FEF7CAFF304610210022FEF755
:10178000C5FF049800F0DAF8304610210122FEF778
:10179000BDFF30464FF48041002244F08004FEF744
:1017A000B5FF304610210022FEF7B0FFE0B200F096
:1017B000C5F8304610210122FEF7A8FFAA452BD21A
:1017C000A84529D909984FF4804144193046002290
:1017D000FEF79CFF304610210022FEF797FF03988A
:1017E00000F0ACF8304610210122FEF78FFF3046A2
:1017F0004FF48041002244F08004FEF787FF30461A
:1018000010210022FEF782FFE0B200F097F8304688
:1018100010210122FEF77AFFA8452BD2AB4529D92A
:1018200008984FF48041441930460022FEF76EFFBD
:10183000304610210022FEF769FF029800F07EF882
:10184000304610210122FEF761FF30464FF48041FF
:10185000002244F08004FEF759FF30461021002298
:10186000FEF754FFE0B200F069F830461021012283
:10187000FEF74CFFAB452BD2A94529D907984FF469
:101880008041441930460022FEF740FF30461021C7
:101890000022FEF73BFF019800F050F8304610217F
:1018A0000122FEF733FF30464FF48041002244F01E
:1018B0008004FEF72BFF304610210022FEF726FFA2
:1018C000E0B200F03BF8304610210122FEF71EFF87
:1018D000A945BFF4F9AE0C98A8427FF6F5AE06987C
:1018E0004FF48041441930460022FEF70FFF304686
:1018F00010210022FEF70AFF009800F01FF8304682
:1019000010210122FEF702FF30464FF480410022F1
:1019100044F08004FEF7FAFE304610210022FEF764
:10192000F5FEE0B200F00AF8304610210122FEF781
:10193000EDFEC9E60FB0BDE8F08F0000B0B50024A1
:10194000C4F202040546204620210022FEF7DEFEF6
:101950000220FEF7A1FDEA0920468021FEF7D6FE0F
:10196000204620210122FEF7D1FE0220FEF794FD41
:10197000204620210022FEF7C9FE0220FEF78CFD42
:10198000C5F3801220468021FEF7C0FE20462021AC
:101990000122FEF7BBFE0220FEF77EFD204620213D
:1019A0000022FEF7B3FE0220FEF776FDC5F34012DB
:1019B00020468021FEF7AAFE204620210122FEF7C4
:1019C000A5FE0220FEF768FD204620210022FEF73A
:1019D0009DFE0220FEF760FDC5F300122046802127
:1019E000FEF794FE204620210122FEF78FFE022002
:1019F000FEF752FD204620210022FEF787FE02203E
:101A0000FEF74AFDC5F3C00220468021FEF77EFEA8
:101A1000204620210122FEF779FE0220FEF73CFD40
:101A2000204620210022FEF771FE0220FEF734FD41
:101A3000C5F3800220468021FEF768FE2046202163
:101A40000122FEF763FE0220FEF726FD204620213C
:101A50000022FEF75BFE0220FEF71EFDC5F34002EA
:101A600020468021FEF752FE204620210122FEF76B
:101A70004DFE0220FEF710FD204620210022FEF739
:101A800045FE0220FEF708FD05F0010220468021F8
:101A9000FEF73CFE204620210122FEF737FE022001
:101AA000BDE8B040FEF7F8BC7047000070B540F2EA
:101AB0000044C4F2020420464FF400610022FEF705
:101AC00025FE20464FF480610122FEF71FFE04F53B
:101AD000806528464FF400610122FEF717FE284674
:101AE0004FF480610122FEF711FE20468021FEF7AF
:101AF00007FEE8B320464FF400610122FEF706FE20
:101B000020464FF480610022FEF700FE28464FF485
:101B100000610122FEF7FAFD28464FF480610122A0
:101B2000FEF7F4FD20468021FEF7EAFD40B3204693
:101B30004FF400610122FEF7E9FD20464FF4806179
:101B40000122FEF7E3FD28464FF400610022002643
:101B5000FEF7DCFD28464FF480610122FEF7D6FD3A
:101B600020468021FEF7CCFD90B1304670BD00BF0D
:101B700020468021FEF7C4FD0028F9D0342070BD36
:101B800020468021FEF7BCFD0028F9D0352070BD2D
:101B900020468021FEF7B4FD0028F9D036263046D5
:101BA00070BD000070470000FEF7BCBD4EF68850C7
:101BB000CEF20000016841F470010160704700003E
:101BC00040F23020C2F20000FFF7F4BA10B540F640
:101BD000FF3E0368C4F2000E40F2004C7045C4F2B0
:101BE000010C27DCB0F1804F31D040F20042C4F24A
:101BF000000290422BD040F60002C4F20002904254
:101C000025D041F6FF72C4F20002904229DC7045F3
:101C10003CDCB0F1804F5FD040F20042C4F20002E1
:101C2000904259D040F60002C4F20002904253D0D4
:101C300056E000BF40F60042C4F20002904206D0D7
:101C4000604504D00022C4F201029042D9D14A6812
:101C500023F07003134341F6FF72C4F20002904276
:101C6000D5DD43F6FF72C4F20102904222DC42F25B
:101C70000002C4F2000290422ED00022C4F20102FF
:101C8000904229D0604527D02AE000BF40F60042AC
:101C9000C4F2000290421FD041F60002C4F20002DA
:101CA000904219D041F60042C4F20002904213D093
:101CB00016E000BF44F20002C4F2010290420BD0D1
:101CC00044F60002C4F20102904205D044F2004200
:101CD000C4F20102904203D1CA6823F44073134353
:101CE00023F080024B69D1F800E08C681A4302604F
:101CF000C46240F48062C0F828E0624504BF09690C
:101D000001630121416110BDFEE700009CB043F674
:101D1000300647F20007C4F20206C4F20007FEF7DD
:101D20000FFD03AC201D2C21FEF750FB00251A955A
:101D3000CDE91855CDE916551595306940F080501C
:101D40003061306900F0805015901598159538680D
:101D500040F480403860386800F480401590159851
:101D6000022003900120069010200790204609953C
:101D7000FEF774FE20B1EFF3108072B6FEE700BFED
:101D80000F20CDE9160516A80021CDE918551A95A2
:101D9000FEF77EFD20B1EFF3108072B6FEE700BFC4
:101DA000002507951695306846F2B00140F0010015
:101DB00030603068002200F00100169016981695E9
:101DC000306846F2B00940F004003060306800F03E
:101DD0000400169016981695306840F002003060A6
:101DE000306807F5C83600F00200169016983046A5
:101DF000FEF78CFC07F5CC3840464FF442610022D8
:101E00004FF4426AFEF782FC07F5CA3420464FF4CD
:101E1000406100224FF4406BFEF778FC03AFCDF831
:101E20000C904FF0010930463946CDE904950695EE
:101E3000FEF788FB40463946CDE903A9CDE90555B3
:101E4000FEF780FB20463946CDE903B9CDE90555BB
:101E5000FEF778FB4CF2C00003A981E8210220467E
:101E60003946FEF76FFB40F22C28C2F2000840F220
:101E70000041C4F20001404640F8041F40F2E7313F
:101E800043F67F620695CDE90455CDE91655C0E9C4
:101E90000115C0E903258561FFF712F820B1EFF3C2
:101EA000108072B6FEE700BF4FF4805008F10405C1
:101EB00003AC039028462146FFF7ACF820B1EFF3BE
:101EC000108072B6FEE700BF16A92846FEF79CFFF9
:101ED00020B1EFF3108072B6FEE700BFFFF7C2FA41
:101EE00020464821FEF772FA42F2BC70C0F60000AC
:101EF000FFF76EFA4FF42F70FEF710FB42F29437A3
:101F000042F2B03942F2243BC0F60007C0F60009A5
:101F1000C0F6000B019519E042F2CC30454640F284
:101F20002C28C0F60000C2F2000803ACFFF750FAFC
:101F30004FF4FA60FEF7F2FA20464821FEF746FA1F
:101F400042F2BC70C0F60000FFF742FAFFF7AEFDA8
:101F50003528FBD1FFF7FAF900204FF0000A0024E2
:101F6000029050B9052000211C221C230097FFF786
:101F70002FFB4FF42F70FEF7D1FA002088F80000F5
:101F80002846FEF7F1FF0FE0AAF1010ACAEBCA00EA
:101F900080004D46C1B205201C221C23002C08BF26
:101FA0003D460095FFF714FB98F80000C0B9FFF715
:101FB0007DFD342802D1BAF1010FE5DAFFF776FD95
:101FC000362805D1BAF1010F02DC0AF1010ADDE77A
:101FD000FFF76CFD352804BFB4FA84F04409D5E757
:101FE000DDE90F0109ABCDE9120111980C991490AC
:101FF0000F91DDE90D010DF1300CCDE910010ECB93
:1020000006988CE80E000799CDE909010898039914
:102010000B900691DDE90401CDE90701FEF706F911
:1020200047F67901C7F6780150FB01F1CA1002EBBF
:10203000D17101EB0111401A40F20C0200EB40019A
:10204000C2F2000252F8210002EB8101D1E9012124
:10205000032803900492059172D3049802287BD937
:102060000598022840F285800698022840F28E806A
:102070000798022840F297800898022840F2A08032
:102080000998022840F2A9800A98022840F2B280FA
:102090000B98022840F2BB800C98022840F2C480C2
:1020A0000D98022840F2CD800E98022840F2D6808A
:1020B0000F98022840F2DF801098022840F2E88052
:1020C0001198022840F2F1801298022840F2FA801A
:1020D0001398022840F203811498DDF80480022846
:1020E00008D85BF82050052038211C221C230095BD
:1020F000FFF76EFACAEBCA0080003E46C1B2052067
:102100001C221C23002C18BF4E460096FFF760FAD5
:1021100003A800EB8A00C06B02283FF4FDAE012843
:1021200008BF002C3FF4F8AE02984546013040F25B
:102130002C281928C2F200087FF412AFE0E000BF9B
:102140005BF82050002000211C221C230095FFF783
:102150003FFA0498022883D85BF8205000201C2105
:102160001C221C230095FFF733FA059802283FF63E
:102170007BAF5BF82050002038211C221C230095E7
:10218000FFF726FA069802283FF672AF5BF8205058
:10219000012000211C221C230095FFF719FA079843
:1021A00002283FF669AF5BF8205001201C211C2259
:1021B0001C230095FFF70CFA089802283FF660AF41
:1021C0005BF82050012038211C221C230095FFF7CA
:1021D000FFF9099802283FF657AF5BF8205002201C
:1021E00000211C221C230095FFF7F2F90A9802280F
:1021F0003FF64EAF5BF8205002201C211C221C230E
:102200000095FFF7E5F90B9802283FF645AF5BF81C
:102210002050022038211C221C230095FFF7D8F9FA
:102220000C9802283FF63CAF5BF8205003200021B9
:102230001C221C230095FFF7CBF90D9802283FF6CE
:1022400033AF5BF8205003201C211C221C23009577
:10225000FFF7BEF90E9802283FF62AAF5BF8205030
:10226000032038211C221C230095FFF7B1F90F9899
:1022700002283FF621AF5BF82050042000211C22E9
:102280001C230095FFF7A4F9109802283FF618AF19
:102290005BF8205004201C211C221C230095FFF712
:1022A00097F9119802283FF60FAF5BF820500420F1
:1022B00038211C221C230095FFF78AF91298022866
:1022C0003FF606AF5BF82050052000211C221C239E
:1022D0000095FFF77DF9139802283FF6FDAE5BF8F5
:1022E000205005201C211C221C230095FFF770F9AB
:1022F0001498DDF8048002287FF6F3AEFAE600BFFA
:1023000042F2C450C0F600000FE6F1EE100A4FF69C
:10231000FF71C0F2C03120EA010040F04070E1EEF0
:10232000100A704778230008402300085C23000847
:102330000000000000000000010203040607080975
:1023400000000000000000000000000000E7E700BF
:10235000000000000000000000000000000000007D
:10236000000000000000000000FFFF00000000006F
:10237000000000000000000000000000000000005D
:10238000000000000000000000000000000000004D
:10239000000000000000000000000000004060306D
:1023A000180C0C1830604000000000000000000015
:1023B00000000000406030180C00000000E7E7005B
:1023C0000000000C18306040000000000000000019
:1023D00000000000000000000000000000000000FD
:1023E00000000000000000000000000000000000ED
:1023F00000000000000000000000000000000000DD
:1024000000000000000000000000000000000000CC
:1024100000000000000000000000000000000000BC
:1024200000000000000000000000000000000000AC
:10243000000000000000000000B8A808080898F09C
:1024400000B8E8080808D86800B8E8080808D8689C
:1024500000B8A808080808080058B80000000000E4
:10246000000000000000000000000000000000006C
:10247000000000000000000000000000000000005C
:1024800000000000000000000000000000171E1007
:102490001010171C00171D101010191D001E0F0121
:1024A000010101010011111111111B1F0016130070
:1024B000000000000000000000000000000000001C
:1024C000000000000000000000000000000000000C
:1024D000000000000000F880808080F80000C0400C
:1024E000404040C00000C000000000C000000000EC
:1024F0000000C040404040F80000C80000C040401C
:1025000040C00000C040404040F800000000000013
:1025100000000000000000000000000000000000BB
:102520000000000000000000000008080808080F74
:1025300000000F080808080F00000F080808080F1F
:102540000000000000000F080808080F00000F003E
:10255000000F0909090900000F080808080F00000A
:102560000C0C000000000000000000000000000053
:10257000000000000000000000000000000000005B
:10258000000000000000000000000000000000004B
:10259000000000000000000000000000000000003B
:1025A000000000000000000000000000000000002B
:1025B000000000000000000000000000000000001B
:1025C000000000000000000000000000000000000B
:1025D00000000000000000000000000000000000FB
:1025E00000000000000000000000000000000000EB
:1025F00000000000000000000000000000000000DB
:1026000000000000000000000000000000000000CA
:1026100000000000000000000000000000000000BA
:1026200000000000FFDF00000000000000000000CC
:10263000000000FFFF00000000000000000000009C
:102640000000000000000000FFF700000000000094
:1026500000000000000000FFFF00000000FFFF007E
:10266000000000000000000000000000000000006A
:102670000000000000000000FF77000000000000E4
:1026800000000000000000FFFF000000FFFF03014A
:1026900003010301030101FFFF000000FFDD000053
:1026A0000000000000000000000000FFFF0000002C
:1026B00000FFFF000000000000000000000000001C
:1026C000000000000000000000000000FE7F00008D
:1026D000000000FCFCFC4000000000FFFF000000C8
:1026E000FF7D000000000000000000FFFF00000070
:1026F000DFFF0000000000FCFCFC0000000000FF09
:10270000FF00000000FFFF000000000000000000CC
:1027100000000000000000000000000000000000B9
:10272000FFFF80C080C088FFFFFF90C080C080FF97
:10273000FF000000FFF7C08080C08080C08080FF65
:10274000FF000000FFDF80C080C080FFFFFFC4806B
:1027500080C080FFFF00000000F3F30000000000D5
:102760000000000000000000000000000000000069
:102770000000000000000000000000000000000059
:102780000000000000000000000000000000000049
:102790000000000000000000000000000000000039
:1027A0000100000000000000000000000000000028
:1027B0000000000000000000000000000000000019
:1027C0000000000000000000000000000000000009
:1027D00000000000000000000000000000000000F9
:1027E00000000000000000000000000000000000E9
:1027F00000000000000000000000000000000000D9
:1028000000000000000000000000000000000000C8
:10281000000000000000001818D8D8D8F80020F8F0
:10282000989898888000009898989898F8100000D8
:10283000000000000000F8D8D898D8D80000C000E8
:1028400000C00000C0C040C00020F8981800C0C000
:10285000C0C00000C0C0C0C00000C0C0C080000038
:1028600000000000000000000000000C0C0C040C34
:102870000F00020F0D0D090D0F00020F0D0D050DBC
:102880000D0000000000000000000C080C0C0D0FF3
:1028900000000F0C0C0F01000F01000000000F01E1
:1028A00000000F0F0F0F00000F00000000000F0FBF
:1028B0000F0F0000000000000000000000000000FA
:1028C000000000000000000000000000C0C0C0C008
:1028D000C00000C0C0C0C00000C0C0C0C00000C078
:1028E000C080C00000C040C0C000000000F898D800
:1028F000D8D8000000000000000000000000000028
:1029000000000000000000000000000000000000C7
:1029100000000000000000000000000000000000B7
:10292000FF1C0C080F04010F00000000020F0D0F28
:102930000F00000F0D0F0F00000F0F0D0F00000014
:10294000000C0C0C0C0F0000000000000000000048
:102950000000000000000000000000000000000077
:102960000000000000000000000000000000000067
:102970000000000000000000000000000000000057
:102980000000000000000000000000000000000047
:102990000000000000000000000000000000000037
:1029A0000000000000000000000000000000000027
:1029B00000000000D829000800000020E800000006
:1029C000C4010008C02A0008E800002098070000A1
:1029D000E0010008000000000100000010000000FD
:1029E0000024F400000000000000000000000000CF
:1029F00000000000000000000200000000000000D5
:102A000000000000010000000000000002000000C3
:102A100000000000000000000200000001000000B3
:102A200000000000010000000000000000000000A5
:102A30000100000002000000000000000100000092
:102A40000100000002000000000000000000000083
:102A50000200000000000000020000000200000070
:102A60000000000001000000010000000000000064
:102A70000000000001000000000000000200000053
:102A80000100000000000000010000000100000043
:102A90000200000000000000010000000100000032
:102AA0000000000001000000010000000100000023
:102AB0000000000000000000000000000000000016
:040000050800018965
:00000001FF
